:020000040000FA
:100000007703080808808800001900090900009992
:10001000000200009999909000A9A099090A90A067
:1000200009001011019AA999A9990B9911909A990F
:100030001113001114189111199A999A00101313A1
:10004000010009001013A299101931213102291061
:100050001901110219A90A1911135322182101318A
:100060001221901A0290092031111211322422011A
:1000700091B90B13111101B20119B9A9AB9BA9A038
:10008000BA999B9907AAA8BC9BAA11B99D9B9BAB47
:10009000909A10011BA1ADBB0AB9990009011393F5
:1000A00033117312029108C98263221109538143EB
:1000B0003392139B3333161209B911303301BB90BD
:1000C000CB99BBBA9B2ACBA991020312B4AE9BD9A0
:1000D000C99A899A2799C99800524380CA9A0009F7
:1000E000B199AB2A53119951A922A0A21293B93107
:1000F000251039090DB0AABBDB3399BDBF999A8091
:1001000012AB93FB8ADA9A9930B0B89F9899899983
:100110002D4153A9B92B3347139099403231B24442
:100120001237221537081122211142200082337321
:100130008290206388A29B02D11AA20FBABBC10A87
:1001400020BBBD9FAA99AA899C9BBADB9F880AE91C
:100150009A9B9B0B18B18DB06A0AAB8311239699B9
:10016000CF092373128829712132C0B8193B45A2E7
:10017000A9BB5035578009321281BBB937F87B15BE
:1001800098D99D18630399D98B7312A1AFBA5944BA
:1001900002B8CC9B313503B8CC8C323391DBAC4800
:1001A0003314C8BC8A313324C9BD09124235B0CFDB
:1001B00008814113A9BB9A09468180CAAC3837002F
:1001C000A8BD8A511401C9BA89731188CA9A3836F0
:1001D00080B9AC09422490BB9B483790A9BC095117
:1001E0001498B8BB99732391CA191113EBAC8934D5
:1001F0006302A9BC0A113481D9AE283124A0BBAD59
:1002000020621300999ADC89882111418042C8DA62
:100210008D334492BABB095233C1CEBB30542498BB
:10022000BBAD10431398B99B0830C08CB96522024E
:10023000EBBA8D434381B9BA8A2232D19D9B4143A7
:1002400015B9CB9C413412A9CC8A10329189BC20BB
:100250005102C9BA396722A8AF9A204324B0CCBB57
:1002600019642380BABC09322680CA990023A0CB26
:100270009B424513C9CBAB30360499BB8A1133B8C6
:10028000BD8C424503D9CB8B425303B8CC9B18534A
:100290001181A9890801BABA702432C1CEAA2844B2
:1002A00023A0CCAA18522480CAAB18413390CB9B10
:1002B000194282CABB18733788BABB8A621481B9E3
:1002C000AA0011CABB1A474413C9CD9A10632398D8
:1002D000CA9C09312301B9AB181598CA8B33651331
:1002E000B9CD8A213582BBBC9B603401B8BC993141
:1002F0002680B98A086382CABC99503512A9BCBB52
:10030000383523A89B8A11D9BC9B535533A0DE9B5B
:1003100008522481BAAD893124019ACA093211C820
:10032000AB88723591CC9A094413A0CBBB2A5422D6
:10033000A8ABBB583503DAAB096333A0CCCB094477
:100340002391BACD0A32250099AB0010A09D896196
:100350004501DABBAB503514A8BBAC184313A0CA97
:100360008A1133B8CBBB5A5612B9CB9A304582A901
:10037000CA8B313481AACC0A4414A9BAAB61448235
:10038000CADB8A31350298DCAA20341290BA9B204D
:1003900001BACC285533B0CCBD0A542480A9BC8AFC
:1003A000322581C9AA08320298CD8B632500BABCD8
:1003B0000A432481D9AB88221282DA9A5214A0CA45
:1003C000BB305623B8CDAB18352381EBBB09433383
:1003D00011B9AB1902B9BD0A632682B9CE9B41257A
:1003E00012A0DB9A283302B8BC185302A8CE9B4156
:1003F0003602A8DC9A20341298DB9A182112B99C94
:10040000412581CABD09542480CBBC0A424312C98C
:10041000BC8A224312A9AC102381EBBB1A4623905D
:10042000FBAC18333401DABB183214A0BB8B523347
:1004300081EDBB29463291DBAC09332401BAAD0909
:10044000202390AA383612D9CD9A423502C9CC9AC7
:10045000303423B0BD8C103314B8BB1A3413B9CF69
:100460008A313512C8DC8A314313B8AD0A21229093
:10047000CC9A423402EACC89423412D9CB8A214345
:1004800012B8CB99182212BA093534A1EEAA295410
:100490002290DBAC18313402DABA09322490CB094D
:1004A0003233A1CFAB20442392EC9B08522391BB63
:1004B000AA083202EC8B423413D9CD9B313623A8E3
:1004C000BEAA28521390CA99882112B909323781DD
:1004D000DCBC19632382DBAC09313402CABB0A528B
:1004E00033A0DB8A314482DBAC09324512C9BC8AB5
:1004F00021341399BAAA11A1CD19442422C8BF9C52
:1005000028442391CCBB0952338099CAAB31339133
:10051000AA0A4432B8CF9C283523B9BCAA0964136F
:1005200098AB8B313481ECAB304612B9AD9A29547B
:100530002490BBAD09323401B8BA9990CA3826323A
:1005400044B0CEBB08443402DACB8A30340188B9D7
:10055000BC2833909999404501EBBC09534380AACC
:10056000BAAC4124009989884282DDAB285712A990
:10057000BBAC0A732481A9BCAA30441290B9AAA8C2
:10058000BA48253143A1DDBB89414513B8BD9C1054
:10059000332200B9AE18229098AA284624B9CE9AE0
:1005A00011441108C9AB89320231239828D1EFAB2D
:1005B000384623A0BCBC8A53440198BCBA184412E4
:1005C00000999999CB1A23443482ECBA9920542487
:1005D00090CBBB08321410A09C1832B9ACAC297572
:1005E00024A0DBBB08523312B8BDBB0021532481C9
:1005F0009AA9BFAC20542491CABC8B31451380CA40
:10060000BC8A42321188B9ABCB0A21344512C9CB1E
:10061000AA89513601B9ABAB28022181302426DAF0
:10062000BCBA8A742601BABD9A20442381CACB8AF7
:100630001852330399B8CFAA18534401B9CC9B1868
:10064000343411B9BDAB21431111A98ABAAD983028
:10065000452482BABDBB2A372381BACB8A80898AD6
:10066000653234B8DDBB99624501A8BCBB28534351
:1006700001A8BCAB0932452208A8DCBB8A5145124F
:1006800098BCAC0942331398CC9C1812118088385E
:1006900080CACD8928453382CADC9A11531208B921
:1006A0009ACABA8B64343390DCAD99303722A8EB08
:1006B000BB0932351280DBAB8A2063230190BCBEBC
:1006C0008A28452390CBCB8A21452288CABB0821A2
:1006D000039889634382BDCBBC20351390DABA28D6
:1006E000471280BABCBAAC0B62353322C9ADAB0A33
:1006F000632291EBBB0951333202DABBAA0A2135DE
:100700002400B1CE9A89413501B8BCAB184503210C
:1007100090BC9A0011B91B544591DBCBBB20372408
:1007200002AADB9B11321380BABCBD8A1045343358
:10073000D9BDBB09733412B9AE9B09322402A8ACEF
:100740008A182241020800ECBC9A30471281DABABA
:100750009B28335324908888A8DE9A104413A0CB9A
:10076000BC1B643313C9DCBA1042431290BABDAB50
:100770008A42443291AC9A89523512E9AD9B1932C2
:10078000353291AACBAA8A082222460199998A4336
:1007900012A0FFBB99203463330299A9DBCEAB18BA
:1007A00053240288CA9B213304C9CDAC08433423A7
:1007B00081B9AEABAB18433403A88A9A503514EA1A
:1007C000BCBB0953431301A9A99BBBAD8828662371
:1007D00081A9BC991022C0BBBC195234461200A991
:1007E000DBCDAB1852341290DB9B08322380CCBD9A
:1007F0000A43342481B9BDABAC193335238088BAA0
:100800000A4025C8BEBB9A4226320208B9ACDBAC0E
:10081000981865330290DBAB8A210090BAAC107354
:10082000562201B8CBCE9A8832441381A99B9A10E4
:100830001388FBBC0B42443402B0CCBBBC893143AF
:1008400024122190998A11ECBBADAB2835342423B6
:1008500080CBECABAB1962442201B9DB9A1001806A
:10086000A9CCAB3057241290BABEAC8911532301E6
:10087000A89A99201381DCDC9A1053251380CBCAE7
:10088000BB9B182245223302A8BD89A8BABACE8ADA
:10089000016225340298DBBDBB8950353302B9CDE6
:1008A000AB102212A1CDAB0955343390C9CCBB9A01
:1008B00010622312809ABA1A2201A0DFAC004235DE
:1008C0002202ABCADCAB89095243430280CB9A991E
:1008D0008999DC9A985234451281C9CDBA99184544
:1008E0003313A8EAAB08102281DCBA9A72332601CE
:1008F00088BBBD9B992025330208B80B001188F8EE
:10090000AF99282553138090DBCCAAAA2052352218
:1009100002BA9C981021D9BDBC8A2247241190DBD1
:10092000ACAA0942342308BAAE09202202EBCB9CC0
:100930002852351280B9BDBB9A19335412119099BF
:10094000999938A2CFBA8A1273261201B8DDCAAAC1
:100950000931363412B8BBAB085392CBCE9A197317
:10096000431291CAACAA8921441312A0CBAA183011
:1009700013DAFBAC094136230198DBBBCA8A084273
:1009800033341398CBBC091489B8ADAA504524124E
:1009900091CCBCAD891034343390CA9B9B4102A9E1
:1009A000DEAB8951352401A9BCBBAB0843343312FB
:1009B000A8BCAA9A12B9F9BE9A3846342301C9CB09
:1009C000DB9B9A2034352381BABD0B122281CCBC2B
:1009D0000A63442302DACBBC991943533301A9BA01
:1009E000AC301281EDCB9B28552411A0BADB9A883C
:1009F0002122432382BAD99C881090ECCB8A5235AD
:100A0000241398BABEACAB083245430198DB8A0088
:100A10003101A9DD8A38453313B8DCBCAA892144E9
:100A2000431380A8AC090081DBCCBB0A642433915A
:100A3000A9DBBAAA881034451301C8CBAA081191C2
:100A4000EBCB0963542311A8BCBDBB0A114434127B
:100A500090CB9B183333E9CCAC0843451280BACC19
:100A6000AA8A082063333282AACA99B9C9CCBC8C3D
:100A70003155331280AACCBBCB0918463323A8DBEF
:100A8000AC882802B8CD8B2066332290CBCCAB9AB1
:100A90001841353282B9CB89114390EBBC0A4145EC
:100AA0002301B9CCAB9B8A086343341288CBAAAA32
:100AB00089A9DCBB087335220290DBBBBC9A0A54BF
:100AC000433301CABC9A082382DCBB9A74342301E5
:100AD000A9CDBB9B093044241390BBAB094313D968
:100AE000CEA91844431298C9BBBBBB9A31654422B6
:100AF00001BABBBB9901C0AEAB2A46433302B8DB97
:100B0000BDBA9A32463311C8AC99283303FACB9C4C
:100B10002054331391DACBABA9083253241199999D
:100B20009A3324B2EFAA8B20452311A8AADBBBBCC1
:100B30009A2047240398CAAA892192BCCD9B3045AC
:100B4000432388B9BDCB9B10522433B0ABAC2943AF
:100B500033D8CDAC0952252282A9CBABBA9B18530E
:100B6000533301A89B1130C2CFBA9C186413128171
:100B7000BACC9998BA892057048898300232F9AED5
:100B8000CBAB0855341280C9ABCBAA09461312A0CF
:100B9000BADBAA9861148899AA382322887392092B
:100BA000FAABCA899971261181B9AAA9B9CC3022A8
:100BB000551200A0BBCE0B112031015381D9CD10AD
:100BC00012440299CCBCAB48354312B8BBCBBABB7C
:100BD000713234829ABB9BCA29252282DD89012188
:100BE00089431253D09BCB9BBC50243303B90A02D8
:100BF000D9BF0A095301303302FD9A8828019A723D
:100C000033A1BE8A1845020898DBCD8A216323816F
:100C10008999CAAE09103502088098FB8A10218292
:100C2000DB193213AA413137D9BA9A99BC38363414
:100C300003DB091003BD9AAC4190513423C8BCBA00
:100C40000A01BB733502BBA99B54810898C9CF899F
:100C5000216323888889C9AE89093502000080CDC7
:100C60008A105102DB9A20120A443137B8CBBBA953
:100C7000DB38434503B9AA1883BB80AE33C01841A3
:100C800027A08ACA1A04BA097203AA908C55018057
:100C900099B8DF8A085224018888C8AC998B45022C
:100CA000010880DB9AA8721498AB09900A14306787
:100CB00000A9AAA9BC18117315989808820AA1AFB7
:100CC00000808850348198DC0A02A98B731319B113
:100CD0009E2201A10B92EF8A995025018018B0AD98
:100CE000B9AD3243131082CDAAAB693401BA8AC8B8
:100CF0000B13485711A8ACA9AC0812722480A90A9A
:100D0000A80983BD00118130278008FB0B2298AC15
:100D100058033094AD2132A08C91DF99A948352336
:100D20008110B09FA9AE1832141202DBABCA18367C
:100D300012B88ACB0B0238573291ACBABD8A807296
:100D40002411A989A82A03BC8928902C368121D98D
:100D50009B5381CD09804884991052A20A24FBAA92
:100D6000BC1A44331241A28DD9BC8A31152214B960
:100D7000BBBC0B55239889DB0B8018443582ABB97B
:100D8000BF9A894145129089C88A819A99428138CF
:100D9000269918C99D3115BA09D94913899864A1B2
:100DA0000A04CABAEB8A51340233B09CDABCAB50A5
:100DB000225323A9CBCB9B52258180EB8A8800321A
:100DC000468299A8CD9A892054230108CB9B90890B
:100DD0009A42904093CA2811987225CA9ACC391524
:100DE000000831B10B23DAABDEAB2045214301080B
:100DF000B9CEAC1001532490AABBAD38361200EA2C
:100E00009A99881046130190FBABAA8B53350210B8
:100E1000A99BAAA9AB63903013D9AB898870279896
:100E200099CC0911118051A20943B0CAEC9C094325
:100E300022531280BBCCBD1800532581AACBAB2A0C
:100E4000461211B9AAAC8A9974231102DAACBC9B80
:100E50003037121288AAAC999B52811022A9AC9A01
:100E6000907A36A189CC8A10429042829A33A18925
:100E7000FECC8A3223532302C9DABC090841350269
:100E800098CBDB0B531223A0CBCB999B722421125E
:100E9000B8BCCDAC0A44222281A8BBCBAB52121005
:100EA00001C9AC8A9860378198CBAA892300611266
:100EB00088319010F9CFAB212142432380D9CD89CD
:100EC0008818341380BABE9D42212381B9BDB9BCB4
:100ED0003837224390AACDCC8A41322311A0BBCA15
:100EE000AC31248081BBBB9B017A570198B9CB0AF6
:100EF00033812215A810992192FF9E0011213214EE
:100F000010A0CE9A880932431288F9AC111043021E
:100F1000A8ABA9CF8A3453248199CCCC9C304223EE
:100F200021A0ABBAAE28332191CBCB8B805947019E
:100F300080CACB89320210239A80C93823FAFF086D
:100F4000180121023203DC8BA8AA08412520D09E7B
:100F50001000232390AAA8EF9B2152341280BADEFE
:100F6000AC09323432809AA8BD19332391BCFB8A74
:100F70009139372302C9CCAB208138250102A9BBA6
:100F800038F0AF89201211907015988AA8A9AC1971
:100F90000074928A98092034002094FF9A8832368F
:100FA000239099DEAB9A4243239188A0BE0A204346
:100FB0000280DC09AA0B533423A2EBAB98AB283494
:100FC000343501CC88B9BAAB423302FA48269000D6
:100FD000BAA9CC098A74029998992032233313FF55
:100FE0009D9A1844240180CACCAB00424301188169
:100FF000CB9A0A420113BD0AD88C28353402B8DBDB
:101000009ABC0921444304B98A99BAAC211022BF81
:1010100029472111AAAAAF898A6213909999992226
:10102000324327BABDCC0951251110A9FBBB893029
:101030003502181298CAAD803816A930A0CC0931F3
:1010400035910888B0AF88AA126927010110EABD5E
:10105000A90B4304402581AAAF888811103580EB85
:101060008C002122148098EF8911012113A9C8ADA9
:101070008820125383BACF8931251011CBB8CF09FC
:1010800032132182BBDBAC38378001B8BBBE09729A
:10109000132191BCDABC2944123290B9BEAB402670
:1010A0000081A9DAAC0A632322A1AACDAC2924329B
:1010B0001498B9BEAA41142281AACCBA2A36233385
:1010C000B9CABEAC3014320499B9CC9B622212B0BA
:1010D000BBACBB3A572202CAAABCAA42334582A97A
:1010E000BACC0A43211498CBCBAB50344382AACA62
:1010F000CC9B3143260099BACC0A225304909ABB68
:101100009C3132378098CACC0A1141248000CAAE83
:101110001912348199AAEB0B336214A899DBCB190D
:1011200022551290A9EBAB21323681A9DBCB2A32B2
:10113000452298A9FBAB1821361288A9DC9B0142F5
:10114000248199BABD1021451180B9CD8C0020347D
:101150001181B8CF0920322390BADD8C104124814F
:1011600088CBDC8910523302A9EAAD1811431290E2
:10117000BBDD8A2152230190EAAD8928532382984E
:10118000FBAC0820342290B9BE8A1853331200FCFD
:10119000BB980034241281CE9B0821241208D9ADBB
:1011A000992044120098DC9C8830361288B8BF8A97
:1011B0001043330199DD9C0821342210B0CFAA8856
:1011C00041341100C8BD8B1953231180EBAB9A41F8
:1011D000242232C0BEAB9A42442122D8AD99184293
:1011E000121190FBAA8A33251111C8AEAA096323F4
:1011F0000201ECAB8921341400C9BD992953232283
:1012000081FAAC9B2963132192DCBB9A31352311FF
:10121000B9BEBB0952243302BDBCAC09432424929D
:10122000BCAC8A20242303C9CC9C18323343A2BD12
:10123000CCAA20353214C8ACAB89523323A0BDBC34
:101240008B30444323A8BEBC9A40434213C8DB9B67
:101250008932353280DAACAA18433414A0CBAD9B66
:1012600020344412B9BCBB1A42343380FBAC991110
:10127000325303A9DBBC0B41332681BABCBB2935F1
:101280003402A9CDAB8832444301BABEBB195342E4
:101290003480CBBC9B38343403A0CDAB9A31452489
:1012A00001B9CCAC0831632391CACBAA20423322C6
:1012B000B0CEAA0921622311B9CEAB1831352390E3
:1012C000DBBC8B21431401C9ACAA1943452291DB35
:1012D000BD9A10423503A8CCCB0921442281BABD66
:1012E000AB0863431280DBDB9A00432502A8BBAD49
:1012F0008821343381CCBB9B0863432290EBCB899C
:1013000018633200A9BCAC08423332C8BCCA8A2078
:10131000452412B9CD9C0910352491CADB8A2032AC
:101320003412C8CBBB8A31462202A9CEAB984044C6
:101330001381BBBD8A08333513B9DC9A9910343454
:1013400004B8CD9A8941342291EBBB9A212533937D
:10135000CBBD9A0862432381DCAC9908534312A8A1
:10136000CD9A0922343391DBBC9A1844431291DCA4
:10137000AC9918342502A8BCAB8831532490CABB61
:10138000AA1943453391CDBBAA28453312C8BD9B4A
:101390000823440298CBAC9A21453323D8BDAB8BAC
:1013A00031372382EBBB9A20532411B8CCAB0A41CE
:1013B000433313D9BDCB8A42342382DBAC9A084233
:1013C0003402A8BCAC8A20533414B9ADCB094133E4
:1013D0002481BCAD8A20532201B9BDAB096324240A
:1013E00090DBABAB28454312B9CD9A082135228159
:1013F000CBBD9A1842434391BCCCAA18343423A9DC
:10140000BDBBAA31462281CABABB8A42452480BBF1
:10141000BDAB20343513C9BCAB0852241190BCBB02
:10142000AA31363503BABDBC8B42443381CCBBAA4A
:1014300010444312A0BDBB8B31633403B9DCBC093B
:1014400021353382DBBBCB19433422A8BCDB9A188D
:10145000533502A9DBAC0921443390BCAC9A30343B
:101460003303EABBAC1941542280CADBAB184335C5
:1014700022C9BBAC8A41343382EBBBAB0941453353
:1014800080CACD9A08423422B8BBCD8A2134338237
:10149000CABCBB8B51542380C9BCAA18523413BA9E
:1014A000ADBB0933443390CBBDAA0044341399CC6F
:1014B000BD8920633391BABDAB18534314A0BBBDA3
:1014C0008A1962341290DCBB8A21543381B9DCAAB8
:1014D00018326302A0B9CC9A18633313C8DBAB8A05
:1014E00021461390BABD0A00323502A8DBCB891021
:1014F000543213D9BCAC0941351298CBAC89106376
:101500003381B9CCBA9941444381BABE9A19523455
:101510001298CCBB8820351481A9CCAA8A414423D7
:1015200091C9BCAB0A54240198CC9A8820342381F9
:10153000C9BDAA0942441491DABBAB30552380B827
:10154000CD9988422413A8CABCAA1853451298CC36
:10155000AB9940341401C9BC9A0042430290DABBF3
:10156000AB1844261298BCBC9A31361381DBBB9968
:101570001852341198CCBB9920734302B8BDAC0A01
:1015800042251280BCAC9920441481A8CBBB8A3080
:10159000562301CABCBA08442413B0DC9A8920340B
:1015A0002311BACDAC8830452201CABCAC185323F4
:1015B00012B8AEAA9930452201C9BC9B0931462216
:1015C00001DBCB9A18434313B8CBAB9B20372222C5
:1015D000B9FBAC9A31363491DAAC9A28442313DA49
:1015E000BAAC8942242311D9BEAA09532512B8DB0B
:1015F000AB09413413B8CCAA9820341588AAA9AAFB
:10160000882025324393CFBB0922324582AABCBA37
:101610008922552402A9DCBD8943351390CCBC8AAC
:1016200032541390CBCB8A11342402B9CD9A89520B
:101630003313A0DCBA8B415313A0BCAA0921441276
:1016400098AABA2902A08980671111EABC8B394691
:101650002281A8BDAC1932462298DBCC8A314522C2
:1016600090CBCC8920341491CABB9921442280D8D4
:10167000BB8919521312A8ACBA9B40242490A9AC80
:10168000881801A10D371200D8BEBB39562301C9F5
:10169000BCAC29443312A9CDBB1933351490DABC44
:1016A0009A30542381CABC9A20534381CABB8A28EA
:1016B000432312B9ADAABA2853252282D9CD9A1054
:1016C000233403B9BCCB899062440390C9DCBB28A6
:1016D000452481A9CCAA08533312A9CCAC082243D3
:1016E0003381CBBDBB08634323A9CCBB89415412D2
:1016F000A8CAAA8811331401A989CCAB082856437B
:1017000001CABD9919533302B8BDBB9B4055238113
:1017100090EDBA0942350290BDAC8A42432291CB8A
:10172000BC8A11345301B9CBBC8931452380BBBD80
:101730009A28362380BCBBA931250112988AD9ABDF
:10174000D90B734412A8BCAD0B32252390B9BF9AB4
:101750001863331282DDCB9A20353481CBBC9A28B2
:10176000533482BACC8A18323502A8CABC9A2844AB
:101770003302A8CCBB0A343414A9ABBC089018546B
:101780001223B0CACFAB28463381C9BD9B1853334F
:1017900012B8CDBB8A41352302DBCCBA18624301B3
:1017A000A9BCAB19523403A8CCAA8831432288B80B
:1017B000BCBD0930452301B8BDBB18623481A09D72
:1017C00089B99B40452301C8DCAB0A643313B8BE1A
:1017D000AC0932342390CCBC9910452202B8EBBB43
:1017E0009A41361290CBCB8A21442280CABA8A20F1
:1017F00031241121EAACBB9A5144438099CCA90809
:1018000034238198AADDBB2A34451490DBAC8B319C
:10181000462390DBCB8910342381DACB99085333EC
:101820002298CBBDBB18363481B9CC9B08424311FA
:1018300090CA8A080902403580C8CCCB8A5125124B
:1018400001CBBBAC31343301B9CDCC8921542381D8
:10185000DBACAB18552302C9AD9A08423312B8CCA1
:10186000BA9B41343401A8CDBB8A51342291CCAB10
:101870009921344382BA9B999AA961253382CCDCA1
:10188000AB20534313B9EBAB1831351290CBADAB52
:1018900009452412B9CBBD8A523423B0BCBD8A316C
:1018A000341480B9BD9B2843242392BDBCBB216363
:1018B0003383DABA9B88304512808980FBAB0942BA
:1018C000461288DCBB8931543380CBAC9A2834343F
:1018D00082B9CCBC9A42451280BACD9B2036328068
:1018E000CABC9A20342301C9AC9B1832433403B9D3
:1018F000DCBBAA50441291ABB9AD1A434212288204
:10190000CCCC9B28452501CBBCAB10444481A9BB62
:10191000BB19533402A8DABCAB40442201C9DBAB8B
:1019200029443303D9BBAB28333324A9CC9B00888B
:1019300021463302A0FBCD0921531108B8CC9A18D7
:1019400042233482BADDBC88633401B8CCAC09418F
:10195000340398DBAB0A32351180CBCBBB20433448
:1019600023A8FBAC0A21541390BB9D88003123812E
:10197000B99B91AF0931472212D9BE9A085332322E
:10198000A8BDBC8A2154338298DCBC8A41361190B0
:10199000DBCB9A21261391BADB8A21233302B9CDFE
:1019A000BC0920542201BACDA909443481B9AB99AC
:1019B0008A2143038828A1BFAD0A72531490DBBB70
:1019C0008A30351580A9CC9A0953332280DBBD9C1F
:1019D00020442381BACEAA18432402B8CB9B082204
:1019E000251290CBCBAA0962431298AABE9A30273F
:1019F000128899B9AAAA2823552301FAAD9B284732
:101A00002381D9CBAA18532312A9CCBB8A433433E0
:101A100000C8CDBB18633312B8CEAA09313522985D
:101A2000CB9A082031238089C8BDBD084335328256
:101A3000CCBD8A21632211A8CBCC9C20533282B822
:101A4000ECAC19532412B8CCAC88323412A1EBBAE6
:101A50008A21343303B9BDAD8A31362398BCDB9A71
:101A600018631300988AA8AA9818513612C8BEBBEA
:101A70008A633414A8DBAB8A42343380BACEBB0904
:101A800034441190EBAC8941441280DBBB8A304472
:101A90003281BBAD9B1041341290B9BDBB2A3733A4
:101AA00001A9BCBD8A3125220201B8ABBF8A3037FB
:101AB0002490CBBD8C10541301C9CBAB204422120F
:101AC00098DCBB8B41433300DBBDAA21453381DA6F
:101AD000CB9A18423302B9CC9A993053221280E93A
:101AE000BC8C20241401A8BDAC093033352390B937
:101AF000DF9B19732202A9CDAB19632312B8BDACC9
:101B00001843232290BDBC8B20443301C8BDBB08C1
:101B1000543412A9CCAA8931342290BBABBC19220F
:101B200054234480FBAB8A30443381BACEAB895115
:101B3000432301A0CEBB09534322A8CDBB8A522424
:101B40002398DBCB0921432391C9BCAB0952241252
:101B500098BCBC9A51451298BABBAB20343310994B
:101B60008ABADBAC20733613A9CDBB8953341390EA
:101B7000EBAC9B3844232390DCBC8A32443380DCBA
:101B8000CB9920442381CAAC9A20433301BABCBC10
:101B90009942431280BACD9B10461381A9CB9B8AF0
:101BA0001021343301A0EFBB8B51363390CCBC8B6A
:101BB00040342381CABEAA1843341300DBBC9B20E7
:101BC000453201CBBCBB29453302C9BBAB283443EA
:101BD00002A89ABC9C0A32333502DADB9C204423EB
:101BE00002A8DBACAA8953344181C9BEBB3064333F
:101BF00002C9CCAB28432412B8CDAB8941342301B0
:101C0000CABCAC18423402C9BBBC0A523412A8CABE
:101C1000AB882043131092B9CEBB9918651301B954
:101C2000BD9B21372112A9CCCC9A30533312B8CFA7
:101C3000AB09634312A8CCAB0A433422A0CDBA8AC5
:101C40002144331199EBBB8A41340490C9BBAC20C9
:101C5000631202A9AA999A0031273302EBBDCB0A7D
:101C600052432298CCBB1942342390CABE9C0833FD
:101C7000252290CDBB8B51352390BCCC9921433389
:101C800091CBBCAA1843251282A8CDAA19432412CD
:101C9000A8CCCB092134339199A9ABBD0963442366
:101CA00090FBBC9B30452301D9BC9921532301A94A
:101CB000CDBB8931442481C9BCBB28553381B9BD12
:101CC000AB08533302B9CCAB9A4033532382DACDFD
:101CD0009929432301C9BDAB094244118888C9BC75
:101CE0009A31472201D9BCAC18533202C8DB9A1092
:101CF000433312A8EBCB9A18522412A8DBCB8A628A
:101D0000430290CBBA8A32341490AADA9B0920623B
:101D10003433A0CCCC8A21342391DBBD9A186323C1
:101D20001081B9BEBB19453323B9CFBB0A41342357
:101D3000A0CCAB0932360290B9CCBA0941433291FA
:101D4000BADE9B20352480A9AC9B1842248088AA47
:101D5000CAABBB40563412B0DD9B09422412A9CC59
:101D6000AB8A52332202A8CDAC8A31373290DABD29
:101D70009A28442381CABB9930451281B8CABC99BC
:101D80001053431180DCBB8A63432198BBBBAA3844
:101D900035320088EBBCBC8B55341481EBAB8B2106
:101DA000442390BCBCAA3044320281EBBBAC284532
:101DB0003302C9CCAC08323403AACB9B18342401BB
:101DC00008B9BCCBAB48443312B8CEAC283425811B
:101DD00099ABAC9931241222D8BBCF9A2136340268
:101DE000C9BDAB18632301B9ADBB1A52332201B987
:101DF000CCBD0952432290EBAC8A10342380BAAC9C
:101E0000993024231191AAECAE9A41332482FABB73
:101E10008B40441200A9CAAB0931422590C9DCBBF2
:101E200019452522A8BCBC0A513303B8DBBB8A3252
:101E300035221198D9CC9A38453212DABCBB0A4403
:101E40003382A99AAA183043323324F9DDAC083220
:101E50004413A8CDBA1843430298BAAD8918423347
:101E600002B8ECCC8B41442480BACC9A2053138026
:101E7000AABD8A1843221381A9EBCC1941531390B0
:101E8000BCBD9A20441280899A988921315522013B
:101E9000FCAD9A18352481BAAE9A31343380BABC7D
:101EA000BB0A42341290D9DE9B10543302C8BCBB2B
:101EB00019542281B8BC9B093233250108C8CD9B37
:101EC00028542411AADCCB093132228089BAAC997A
:101ED00030473313F9CCAB08633302B9DCAB105392
:101EE0003301A8CABB8A21351311B9CFAC095234CA
:101EF0002498BBCC99314322A8ACBA890122343250
:101F00004302FCBC8A30462280CABD9B1043230298
:101F100080A9CBAC1944441290DDAC8A31451290B3
:101F2000CABC0932341388CABAAA28433212A8EBB1
:101F3000CE9A20642381A9CBAB08342391BBABA9F3
:101F40009B8988733724A1CEBA09622411A0CCAC36
:101F5000892124220898BAAD8941352302ECBCAB13
:101F600020452382CABC9A21442291B9AA9A190118
:101F700032032093EFDB8B51342380BACD8A1022B9
:101F8000139889B9BBDBAD30654382CABD9B403530
:101F90002380DBBC9B2844120188B9AC9A213525EB
:101FA00002B9CEAB89533402A8BCAB095333818943
:101FB0000098BAAB9B105635A1CEBB09443423A080
:101FC000BCBB9B2044228080DACCAA28453323D98D
:101FD000CDAB20443301C9CCAB1832240190B9AA4F
:101FE000990A732413A1DCBCAC21441381BACC8AB6
:101FF000203312182480B9CDBB8A623503C9CDAA1B
:1020000010452301A9DBAB8942231201B9DDBB19BD
:1020100042452390ECAB88423412A0BDAC892133F9
:102020001280A988B9AB40373212C8DEBB096223DF
:1020300012A0CBBB89321341343292EDCBAB314588
:1020400033A0CDBC8953241388BBBD8A202323022F
:10205000A0ECBBAA31464301DBAC9A30362291DBBF
:10206000AB9B10242290890190CA0A34433502FAAE
:10207000BD9B20534301A8BB9C880042344302B956
:10208000DF9B18433401DABD8B40432301B9BE9A6C
:102090000022131198CBBCBB19544502B9BCBC2912
:1020A000632401A9CBBB09212380103413EA9B9937
:1020B000403724A0DCBB8B41441380BABBAC09433E
:1020C000343333B0EFAA08303512B8CEAB105333E7
:1020D00013B8ADAB09203213988AB8BFAA40462284
:1020E00090C9CC8A41341280CABBAB1101883146F9
:1020F0002498BBBE19443401CACDAB28443201999F
:10210000DBBB893033442490CDBA9A204523B0CD2F
:10211000AC09323523A8CBAA8A004301AA1001C911
:10212000AD18325502A0EC9B20434312A9CC9A89EA
:10213000991832463302EABD09524311A8ECBB0894
:1021400042242290CBBB9B3033452490C9CBAA19A3
:10215000542391CBBD9A40441380A9AAAA0A339272
:102160009B4134A8AC9A8B662302EA9C0920632326
:1021700081CBAAC99C0020333713D8BCAA413414A0
:1021800082ECAC8921432381BCBB9B1831452301E0
:10219000B9BCBD9B732301A9CDAC1843240198A8F9
:1021A000AA8B12A89B51348188FBAD113423A0CB9C
:1021B000CC894154029899DBAB0921314622A8CD44
:1021C0009B10444302DABD9A18423501A9CBBA8864
:1021D0001035320198CACC9B31342281FBBE0921D3
:1021E000432211A8CB9A89A98C42242113ECBC2943
:1021F000532311C8CC9B2845221098EBBB8A013190
:10220000462298BCBB19723422B9CEAA8941351234
:1022100099AABABB293425121198DDAA1832333491
:10222000D8BE9A083235330189BABDDC8A303335DD
:1022300013D9AF0A11322491EBBB0A52431281DA4F
:10224000BC998828352390BBCC9B613423A8BECB96
:102250009B2036148899AA9C092121233481C9BD69
:10226000AA09523691CAABAC886334111198CCDB01
:102270008A10323424B8BF8A18422402CABC992872
:10228000352411BABDA99A1835240089D9AB38363E
:102290002480CACCAB1963140081B9BA9B88187327
:1022A000241191CABC9C303513A9DBBCAB5224234A
:1022B0003381CCBDAA09313633A1CDBA0A313613E8
:1022C000BAACAC0A633323A9DBBBBB1944231001AE
:1022D000DAAC28632211B8DDBB9A41243303A9CBC1
:1022E000AADB9B52243323A8DE9C08323401B8DEDB
:1022F000AA1832443302DACBAB8A31453280BBAE06
:102300008B30450298BADB9A41341380BABCDB8A21
:1023100021202333A1BD8B23613482CCCCBA0A3176
:10232000452311A8A9DF9B1033342481FBAB9931DD
:102330002612A1CCBC892144530198BBAD8B283512
:102340002201B8DCAA18351380B9CCAB3826231289
:10235000A8BBCC8BA9283434129980BA3A6701A85B
:10236000ABEAAD184233231291EFAB89204335021B
:10237000B9BDBB28634391BADC9B0852440280B9C3
:10238000CCAA0823332390EBBC1952121199DAAD71
:102390000821332581A8BBCBBD0A1163022182DB52
:1023A0000A31348820FAAF9A1043332502CCBC9B03
:1023B0001862430299CAAC0942258199EBAA894166
:1023C000351201A8EBBB0922322401D9AB0A4233F2
:1023D0001398FB9C09805243038990C8BF9A083325
:1023E000226382CAAA28141153D0CCBB08214524E9
:1023F00001C9BCBB8962341198BACC9A42350098A5
:10240000ACCC9A3035331290CCBC8900323323C91E
:10241000ACA909233602B9ABDABC0957121111C8AD
:10242000CDAB8822313582B99D8821322698CDBB2B
:10243000AA18472312B8CCBC8A51331388A8CD8B75
:1024400031440288D9CBAB1863242201CAACAA98C4
:10245000314313A018CBAA1A36811912EADD8B403A
:1024600022432480DDAA9A18322502B8AAAA095666
:102470002292CBBCAD8B54232380CACD9B11341246
:102480000190DC9A10341301B9BFAB993055331366
:1024900098DABBBC0853121001A9CC9A43813113BE
:1024A000B8FF9B1820470288EB9A00088020084755
:1024B00013ECAA0A541498BBAC39250080992083E8
:1024C000BCBACB583701A8CC0A432391BE9B530119
:1024D00099CA0B4733B8BF8A412391BAAB3125B1B2
:1024E000AD89203582A9CC9A423491B99D002092C1
:1024F0008B091175919BAABA72068099CB28140199
:1025000010B919D1AC20B170040910FA0A8219333C
:10251000C03A94AE10804093BC28A13BA4BE600298
:102520004093CE09812193AD40139AB0AE512380E0
:10253000D9BC39160081DB182380B0AF2815808004
:10254000DB09241012DC8A220001EC0A432213FB6F
:102550009C102023B9AD212023FB9D312313FB9C2C
:10256000202123C99C301121EA9D202323E9AC2896
:102570002233C0BD181223D8AC302422D9BD183262
:1025800033D8BC392422C8BD293333C0BE1A223304
:10259000B2CD292402DACC294322B0CD0A334391AB
:1025A000CC8A3222A0CE0A434381CC9B113302DA7B
:1025B0008C203103FA9B314312DAAC183214B89EE6
:1025C000281202C99D283124B8AE102202C8AC20BE
:1025D0003102FAAC215313A0BD8A194302AB202269
:1025E00002E8AE18422491BE9B283324A889001229
:1025F000A3FF09102302EB8A202582EB892112A078
:10260000CE0A324402EAAA183213E99A193422EAAD
:10261000AB193434B8BE892124919B084222FA9D1B
:10262000083335A0CC9A284481BA9A2035A1BD8AB6
:10263000403692CABB094403AAAB194682CAAC0809
:102640004403A9CB8A5313A8BB0A6382B9AD1955B9
:1026500012A8BCAB422480B99A4114A8BC8A633347
:1026600098CD9B203511A98A2023B9CF993835827E
:10267000CAAA182681CA993025A0EC99312601B939
:10268000AC0A3303C9BB483502DA9C294501C8AC02
:102690008A332482BB8C2123C8BE0A5422A0BC8B5F
:1026A000323402BB9C0100A1BF8A553282EBAB10D1
:1026B0002203CA9B342212FB9E00302598AC8A006C
:1026C0004323A891ADD9392241B0BACF092622912E
:1026D000EA8C311102CCBC503323D8BD8A2234029B
:1026E000EA9A18322102CAAF20120801AA8989ACDD
:1026F000720600D8BC19361290CC8B303412E9AB7C
:10270000885223B9BD095234A0BCAB313404BABBE2
:102710008A631390A9BC508388D989105300019C07
:10272000AA180680A288F92B117211C9AD201225B2
:10273000C0BC0A335482DABA193324A9BA9C4214B1
:1027400088A99C592480BAEB99532281AAAC0943E9
:1027500022CAAB08323793BD999A6144909BBC9AC8
:10276000432781A9BC0A6223A8BCAB205792A9AA1F
:102770008B622498BBCB284512A9CA9A215382B9EF
:10278000AB0A5035A0ABBA88641499AB9D185312AC
:1027900090CA9B204580BB9C087323B9CB9B3047D4
:1027A00081BABB0A533490BA9D184204A9CB0921BF
:1027B0004482AC9A882037B1A9CB0A712380A9AD95
:1027C00089520498BA9B185792A9BA98711498B96B
:1027D000BB19550398BAAB285580A9AB80611598F1
:1027E000BA9A0A748398BABB18478180AA9A293585
:1027F00081C99C99612380BBCB8B578190AAAA3851
:102800002700B8AA99521280BD09104581C99A982B
:10281000581680AAAAAB721211B9BB8A6321B2BD45
:10282000981A4702BAABBB711691B9BA8B55128090
:10283000BABB382612D99B99511481CB999A54135B
:10284000A0AACB1B352282BBCD193225A8CBAC4127
:102850003482CACB1C5323A0DBCB283423A8BC9CD6
:10286000313382CCAA293514B8ACBA483512AADB68
:102870009D203323A8EB0B214490ABCC084414A833
:10288000C99C38340299DD8A223301A9BD1942144A
:10289000B8CA9B2136839AFB8B412491A8BF08219B
:1028A0002402B8AE88412388EB8B384401A9DC8927
:1028B000322580C8AC19421381EA99103282B8AF30
:1028C00009312608B9BC89631311DAAC0941320217
:1028D000CCA9083421B8BD9A711300CA9C193502DD
:1028E00090CD8A183421B1BC99301501DAAB084675
:1028F0008180BC9B402521B0CD89201422BAAC88B0
:102900004402A8BDAA30471099BC9A602313D9BBD2
:102910009A433303EBAB0A3423A0BEAB501512B974
:10292000BC9A442302FBAB09243281BCBB3934245A
:10293000B8BDAA433413DBCB0C314402AADC0A1025
:10294000340298BC895122BACA8D324581AABD1978
:10295000433390BCAE28322388C09E2823A11AFBA3
:10296000293382C9A9AE4302019BB10E120901317C
:10297000E838A238F80AAC521033A8FAAC00532554
:1029800088CA9D08302313BB809A14CDDA1B6332AA
:1029900015A8DC9A10530100BAAB99522291AB09E9
:1029A0005016AADB9B225602A8CB9B21340191CC66
:1029B0009A89213215081011C0ECAC384523A0BE0D
:1029C000CB0942168198AA8A08212381894325E9E7
:1029D000BE9B304523A0BCCB1A632391AABB1A31FE
:1029E0002298A91C5513F8BD0A412513C8CB9B2971
:1029F000442390BAAD0820020088382425FAAD8A15
:102A0000415313B9CBBB19641290B9AB0843810889
:102A100098286214DCAC09434482CBBA9A305582C0
:102A200098B99A08238811101621C2EF9A104243D0
:102A300091BBCB8A31360098CB083104BBBA4953DD
:102A400053B0BEAB305424A8BBAB09732380B9ACE0
:102A50000932918B0A533236EABC9B324623A9BB1A
:102A6000AD9A631300B8AC09228891A9317512BAE6
:102A7000CD8A214583A9BCBA19370181AAAB380395
:102A800009B8383636B0BEAD18423580BABBBB483F
:102A90003521809ABB41909AAB426325A0DD9B080B
:102AA000631480AABBAC522401AABA0A2480B99B41
:102AB000217523B8BF9A18452390CACB8B322502C3
:102AC00099C9890100B90A216712B0CD9A08451346
:102AD00080BBBD0A333401BAAD2002989908523642
:102AE00002DBBD9B40351288CBBD08422212B9994A
:102AF00081B88D991A553481CBCD8B30361191DB4D
:102B0000AB202312A1AC1022D0ABBD39552490CA02
:102B1000CC89422402B8BD8A201333B89C0112CA62
:102B2000AAAE31552480DBBC8A523312C8BC9A311C
:102B30003213C98A200389F99C18741280EBAB09FF
:102B4000533202CABC0A224212988910C9AAFB89D0
:102B5000413611A0BEAC28532282CABB1801328272
:102B60009B2926B9DBBD19732401B8BE9B423412E0
:102B7000B8CCAA102223A99A4013A9FBAC0955246A
:102B800002D9BC9B323414A8BC9B113213A9AB727E
:102B90002281FABB0A642202DBAD0A323402A9BDEB
:102BA00089014302989A1101A8DFAA38363392DDD1
:102BB000BB1A533312C9BB99183282CA392500C9CE
:102BC000BE9C414432A8DCAB30331590DA9A082120
:102BD000119099511380EBBD0A543402C9BD9B2159
:102BE0005313A1BC9A183112A08C522301FACC0ABB
:102BF000423411D9CC89213313B8BC9A104322A88E
:102C00008C2012B0DEBC29454381DAAD88314313F4
:102C1000A8CBA9092202A9293413EADCBB4054221B
:102C200081CC9C00323281DAAA891011818B633306
:102C300092BDBF0B632403B8CE9A10333390CBAB55
:102C4000891143A009534581DABD8A423422D8BD97
:102C50009920342298BBAA195323C89A302488FBA0
:102C6000AE09423412DAAC9A31341480AA9D89201C
:102C7000019008310580EDBB28543302DBBB8B315A
:102C8000350499BABB89211310214781B8CF9A41E5
:102C9000252291CDAC0821248298BA9B1922810863
:102CA000723781D9CC99304412B0CC9B183325802F
:102CB00099AB093203CAAA623302FCBC8B522423AB
:102CC000C8BCAB10542391C9BA891012909A5224EF
:102CD00082ECBC09434403A8CC9B18531280B9BBB7
:102CE0009A201381384712B0CEAA38444302CCACA4
:102CF0008A28342281CAAB89112108732682BACE70
:102D0000AB20443380CCBB8941241298AA8A2091FD
:102D1000999C503602DBCD8B314433A0CCAB0A6298
:102D20002400A8BA9B10009089622502DBBD8A317D
:102D3000452480BCBB8A422401A8CB8A001190188C
:102D40006423A1EAAC0A313713B9CDAA0943331180
:102D5000A9BC0B880021652302C9CEAB085324020D
:102D6000C9BBBB20542200988A989AAAAB7236033A
:102D7000C9BEAB10352582CABB8B42250190BA8BE8
:102D80008888B98B733701C8CC9A28443481BBBD7D
:102D90009A31431288CB998080A918553411B9CE45
:102DA0009B285423A1DBCB8A324312A1AB9AA908FA
:102DB00041436412A0DDBB8931361498CBAC093293
:102DC000242181A8B9BBCC8941460298BEBB0953D6
:102DD0004412A9BC9B30431281A98C99AABD0972E7
:102DE0003511A8BEBB19554381A9BC9B1024128183
:102DF000AA8A89B89C08742433B0CEBB1963438176
:102E0000BABD9A212422809AA9998880305733012B
:102E1000ECBCAA20732381DABB893033340298BA20
:102E2000BA9D8A18463491DDAB9A41450298BAAAF8
:102E30002944110099999ADBBC89722423A0DCCB28
:102E400018433401B9CDAA18333302AA9990CB990B
:102E5000BC2A762490DBBB0A542482B8CC9A211277
:102E600001A9808A38809028673313D9BEAB895373
:102E70003312DABC9920533402A999CB9AB89A201C
:102E80005702A8CDAB30461291A8BC0A12219089F6
:102E9000998AE9BB0973453282FBAC88302412A8B9
:102EA000CCAB193234239008C09DA9AC08741480AF
:102EB000BABE8951241298CB9C10200290BA0B23E1
:102EC00090BA8A753533A1BFAC8A332482CABC9BC1
:102ED000284543829880AAAAAAA98A4612A0DEACF5
:102EE0001844240190BC8A183201A9AC89B8BBAA45
:102EF00021771602B9BBAC313512B0CCAC88104288
:102F0000338120A0C9CC9A08542491DADC8A303568
:102F10001380D99B09302398BD082298CBBA71350C
:102F20003481CCBC8A422302A8BDAC19426302881A
:102F300081AABA9A98095433A1FDBB8963242291CE
:102F4000BCAB093323B8BC89A99DB83B772212B921
:102F5000DBBB30342391EBAC9B083237001090C9B7
:102F6000AC0910632381B9EF9A18441102B9BB9BD5
:102F7000313581BA0911EB9ACB50343681B9BE8B09
:102F8000421322B0CDAC08104412180098BA9A9996
:102F900019740288FBBD9A51333401BBAC8A3035B9
:102FA00090BA9AB9ACC91A45532301E9AC08333237
:102FB00002D9DC9B9A4025101000C9AA082253149C
:102FC00080B9DFAB19433324A0BCAB19630290096D
:102FD00091DB9AAD10734302B0CD9A20423290CC6F
:102FE000AC88083423101280EBAB9929360201FB20
:102FF000DC9B20253402A9BBAC203402BA9ACA9CBF
:10300000BA9942653322B8BF0A213314B0DDABA9A7
:103010002025113211C9CB0908443301D9BDAE0AAC
:1030200022432580AABB8A21350100B1BDCBBC1843
:1030300072241291FB9B18322482DABBB999632364
:10304000213281E9BBAB29371202E9CDAB10344400
:103050000290BABB0953029880CABCCA9B28564347
:1030600022A1CD8A18422391BDBCAA194323331251
:10307000B0CC999A733302A0DDBD8B106324818894
:10308000BBBB2954110190CBBBAD8A53343313FA27
:10309000AD09213222B9BDBB9C3125223323E9CBB6
:1030A000BB1A534312C8DDBB1842341488A9CA990D
:1030B00020021112C8CBBCAE0944342491DBAB0909
:1030C000414382BABCBC893244222281AAEBAB20A4
:1030D000443302EACEAA0842341280CABB8A4212A2
:1030E0003281CACCCC8A20344413B8CDA900322412
:1030F00091AACCBB1932444313A8DABC8A414314C9
:1031000098DCAC8930353381A8CABB1922312480C0
:10311000B9DFBC9A43442402BABD8A213403B9BB47
:10312000BF8A202322532281EAAC09213523B1EF43
:103130009B8931342381C9CB8A2212330280DCBDC2
:10314000BC0A42453380EBAA0A31341298DBBC99A1
:103150001023353301B9DE9B10522302E9AD9B19D0
:1031600053331281C9CC890111222391CECD8B100A
:10317000343522A9BD9B10431380B9CE9A08012192
:10318000534312C8AD8A28443392CECB9A2053239E
:103190000299CB9B2131431102CBFBBE99204443C2
:1031A00001B9CC9910351181BABDAB00223353233C
:1031B00082DEAA89423325A8CDCB8922342212B8D7
:1031C000DD890020223382FABE9B0843442390EB22
:1031D0009A09312322A0DCCB990820533423C0BCA8
:1031E000BB28443402CBBEAB1843331201CBAB8AAD
:1031F0003143533383DFBC9A00533413B9BDAC1150
:10320000432311B8CDAA888821434581A9BD8A10DE
:10321000543381EBCB8B00532212B8BBCB08314423
:103220003212C9CF9B9931353482BACE99213223DB
:1032300002CACCAB8A2824542390DC9A8822252306
:10324000A8DDAB8931334213AADB9A093144360138
:10325000DABDAA0A42351490DAAB0832332490CA98
:10326000CBAAAB20623523A8BEAB08534411A8CD2E
:10327000AA0832222480B9BCAA2033452401DDBB30
:10328000AB20433711B0CC9A28224313A0CDBAAA61
:103290002821652380DBBA8920541301DBBB9920E8
:1032A00001312401DACB0A11743412C8BDBC0A20E2
:1032B000633202C9AA8921331208E9BDCB09114141
:1032C000352481DBAC8930343291CEBB0A222322F3
:1032D0003380DBBD0908354323E8BEAB8862332366
:1032E000A1BDAC0A20243202A9DC9C8928533312E8
:1032F000D8CC8A29442301CADBAB0821332512012B
:10330000DB8C8910433491ECBC8930353202DABC55
:103310009A2034224301C9CE9A9910535302C9AB63
:103320009A322433A2CDBC8A2122322412D8AE99FB
:103330000931352581DCAB9A31333481DBBC19533B
:10334000232281A9FDAB9A1842633382CBBC8A1138
:10335000212481DAAD1822222311A2FF9B092042E9
:103360004422B8CCAB0901313391CD8942232223C9
:1033700018F8CFAA891853351399CB9C080132113C
:10338000A9AE0A2131330133FABFAA8831464382FC
:10339000B9CD9A00102203A0BB294422140881DF72
:1033A000AD890931452482B9BD8B00204313B9ACE6
:1033B000190020025283DEAB0A18634523A0EBBB41
:1033C0008A18213402A90B2123449121D0EF9A9924
:1033D0001843361390EBAB0900312302BA8A8019E7
:1033E000930C54C2BDAC8931563502A8BEAB8918C6
:1033F0004122019A203253918A00EEBBAB8A2067AA
:103400002402B8CC9A88103314A19B098912184160
:1034100084FBCB9A8941473301DAACAA8920331463
:1034200088880040238031D2DFBAAA096245228110
:10343000CAAC9908214212A9899810911A3792DBD7
:10344000BCBB8A733733A0DCAA9908214382891058
:103450002812B81A25E9BCCCAA0A654322A0CCAA36
:1034600099104233809AAA8A00A9512491EBACBAF0
:1034700039574313A9BEAA8A18522280808A311371
:10348000A82893CFBDBB9B61454312C9CBAA881026
:10349000432398A8AA00A01B5502B8BECB9B633556
:1034A0002581CAAC9A8910240201801822A19A238E
:1034B000B8EFBCCB0A73432481CBBB9A18322500EA
:1034C00089BA0913A8294512E9DBAC09524523A1A1
:1034D000DBBB9A09422301A89A4223994023C9CF12
:1034E000CABB18734422A8BBBC9900441280A9AB84
:1034F00018910A553391BCCEAB10734313B9CCAAC3
:103500008A18341112980A32B08A3523EBDCBD9A3E
:1035100021645382B8BBAB8931251288BB0A03C929
:10352000285513A8ECBC8A30654381AAACAB9941FD
:10353000222180994002A9085298BBDFBB8A4156DC
:103540002381BAAD9A09332312B8AD10A10A4035D0
:1035500001B9EF9A8832562390CBBBBB1922431492
:10356000910A42A0A93115A8ECBD9A0862351498B9
:10357000CAAA9918322201CA1913AA8B652280FBA4
:10358000AD9A1873441199BBCB9A1022320288402D
:1035900013BA8C328290FFAC9A18643411B9CBAB59
:1035A0000A21431290AC1080A9393721B1CFBBAAB0
:1035B00020672382C9BAAC0910323390893392ACA8
:1035C000402320FABFAB9A58462381BACBAB0822DE
:1035D0003312C91A12C88A532324FABDAA8A623642
:1035E00033A0DBBBAB18204323982122C99B114198
:1035F00084FCACAB8A723523A0CBBB8A10314391DB
:10360000BB2002C929244592CDACBA0A754302A851
:10361000BBAD8A00213401092180CB000053B8CE14
:10362000CBBA19473402A9CBAB89103224A8891030
:10363000988C106325C0CCBABA58463300BABD9BEB
:1036400089004323801032B89C886204C9BCCCAB8B
:1036500040553300AAAC9A891033029B2813CB093A
:10366000186712C9BCDB9B52451380CACBA98820BE
:1036700043028011829BA91B4681DBBCBD8B724437
:103680001280BAAB9B993025910821A198B9793560
:10369000A1CCBAAE09642402A8CBBA9A094224018B
:1036A0001012A9AAAC4115A0BCDCCB18642312A847
:1036B000CBBAA988330480218398C99C7223C0BBEC
:1036C000DD9B30473201BAAD9B991843130121812C
:1036D00089EB8A5313C9DBCCAB40452302BACBAA92
:1036E000A938240109218090CE19458299CBCD8A31
:1036F00051441291BBBCAA8A312512100388C8CC50
:10370000203481B9DEBC8A52442390AAABAB9A32F2
:103710002380310320F99E582481B9DCBB0A45443B
:103720001299BBABBB09522300210111EC9A631320
:1037300080CBCEBB1953351398AAABBB0923811A92
:10374000214104CC8C640280C9CCAB30453481C9A2
:10375000BABA8A20340321902903B95A3790BADEC5
:10376000CC9B31463381B9BBCAAA183422120190CE
:10377000CCDC1A531202B9DCBA18451280A988B9F8
:103780008A1080B8BD782503894382BCDCDC8A00BE
:1037900052441280ABCBBB194322128198BAFCACC5
:1037A00031343282EBBBAB4043338298CABBBB8A15
:1037B00010EA2A4724810810A9DADDAC88313624C2
:1037C00001A9BABDAA2143338199A9CABF193434CA
:1037D00013B8CEBA093145120098BABD9C08082129
:1037E000354402A8A8AA99BCCDAA0973451290AA8B
:1037F000BABB0A32531480BA98DC8B41352482DB81
:10380000BCAB18542400889ACABB892032434513A4
:10381000A9A99C8980C0AEAA8B74340288CBAA9BCC
:1038200020323481BA8AD8BD18453324C8CCCB9A0B
:103830003227130099CAAC99091242434381BAACAA
:10384000188802CDAACB39471401B8AABB08014495
:1038500002A88888FB9D20243483DBBBBE09631447
:103860000288A9BCA9991031534323A9BC099932F4
:10387000B9BDFC9B30373381AABC9B803124809832
:1038800089D0BE0A345523A8CACDAA38443301A82A
:10389000DBAAAA892133333702CA89993093AEDB78
:1038A000BC8A63352288C9AB99094201019A80FA22
:1038B0009E1041350298BDCC8A31351301CAAACB7E
:1038C0009A0032235324B09C98282682CACDCB89F3
:1038D00044430280ABA9BB082133013083FF9A899E
:1038E000642301B9BDBD18533313B0ADBAAC8942DE
:1038F00022214481BABA8B722290DBEBAB204523A4
:1039000011A9BABC880832021142E8ACCB4035326A
:1039100090DBCD9A21353392AADBBBBB39334345CB
:103920001398BAAD09628288D9BD9B42342481A91B
:10393000ABAA9A1132906192CBDC0A52351298DC14
:10394000CB8931442390B8BBCC8B103153430190C9
:10395000EB8A301588A8BFBC1834441288AAAABBC9
:103960000A31033826B8EAAD09633311B9CEBB2852
:1039700053350090BBAC9C892123441301D9BB0B68
:10398000441102D9CDAA20532501999ABAAA093324
:1039900021568188CC9A29451280C9CD8A2054228B
:1039A00081A9CACBAA192144242190CBBB28222269
:1039B000A0DEBD893046228099B9ABAA1881731464
:1039C00000BACC8B51341288FBAC8941342290AAC6
:1039D000BBBD9B1831373214A9CB9B224212B9DFF1
:1039E000BB8A63240380A8AACA898128242180DD98
:1039F000BC18532411A0CF9A19433303A8CACABCD8
:103A00000A0053332581B9BD89304302F9CBAA2876
:103A100045230180AABBBC8028441202B8DFAB203A
:103A2000352412DAACAB3044238099BADCAB984130
:103A300032540290BA9D193222B2CFDB8A3135134B
:103A40000199BABC8A9943323311F9AE8A413443A1
:103A5000B0CCCB093245128099DABBA91A43442372
:103A600012B0CCAA204313CACDBB096333230199FA
:103A7000EAAB9A1922223284EDAB1B454303CADB21
:103A8000BB0834241388A8DDA99A1832352383DAB9
:103A9000BC19223591EBBC9B2835241388A8BCBAED
:103AA0008A10324325C8CCBC31733380CABC9B28F2
:103AB00044230200DBABBC891153433391DC9B10E0
:103AC000530298DCBB9B5134331180DBBAAB00202E
:103AD000313782CACE0A32361298DBAC0A20441340
:103AE00001B0BCDBAB0831353512C8AC9A2025805B
:103AF000B9ADBB0A52351311B9BBADAA0831623357
:103B000000FD9B08521481A8BC9C0851241191BA55
:103B1000DAAC991833372392CCAA8A431281BACDF2
:103B20009C085333239199ACBBAB09313722D1BEEA
:103B30009A30372280BABE9A19442312A8A9DDBA56
:103B40008A18552323B8ACAC202322A8FBBCAB3089
:103B50003643028898AABD8909523213CEBB0A4463
:103B6000341398DCABAB6022238188CBCCAB9A5169
:103B7000342482AAEB8A122212A8BFAC9A325413C0
:103B8000018099DABB98402234C8BBAE2844240196
:103B9000B8BDBB1B35440280A8DBBCAA2935441341
:103BA00090C9BB09312312E9CCCB0822361111810F
:103BB000A8BEBA8A115303A8EB9A30372291CCBB26
:103BC0009D2153330188CADCABAB4234350298EBFC
:103BD0009A08222292BBCE8B084423311101CDBB1F
:103BE000AC00312411B8BD8A641222C8CBBC1A3291
:103BF00046128089EACBBA2833551380B9BC992183
:103C0000320598EBAC9A3035332312B9CECB8A18F3
:103C1000431281BACC49144282BBCC9B1872220257
:103C200088B8BECB8C2252241198CBAC10312480A2
:103C3000A9BFBB0A4234242381ABCE9B8820332307
:103C4000A1FB8D11412390C9AD991063220002CCD4
:103C5000CAAD0820362201A9CC8A18538281DABB6A
:103C6000CB194235420288D9AC9919223102D8BD0C
:103C70001030378198BBAC9A42450111A8DACD8B40
:103C80008852241211DAAB89301411A0BDCC8B18E4
:103C900043442302A1BFAA8A10221401C98B98733E
:103CA0002201EA9A9A10732310A0BFB99A006125E5
:103CB00011A0BAAC2042269198CEAB092243240829
:103CC000A9AA89748110A0ABCDBB1937212480CB60
:103CD000CD9A31343283A9ECAB8A33233482B9CD07
:103CE000BC3A35430398EBBC9B3133340290DACBBA
:103CF0002A252202CADABB9D41244382AACCBB1AE0
:103D000053532398B9BDAD1832430398BAFB8B3196
:103D1000342691B9BCBC092134150089A8AC100126
:103D20005281CAABBD1A34632498ABEBAB20435429
:103D30000198BABC9C104234029AB9CE0821631390
:103D400090BADCAA083044220090EB8B003125A108
:103D5000A9CBAD2822361399DABC8B32543300BA82
:103D6000CCAD0A1134258099DC9A1052430198BCDD
:103D7000BC8B1043431200C9BD0810631298BACD22
:103D80008A11432401A8BD9D1832341390CBDC9CCA
:103D90000031440280D9BC0920353301D9EB9B099D
:103DA0001133251290DC9A8830241291FAAC091054
:103DB000531201A8CD9A2041431290DAAF8A0041F4
:103DC000241180DC9B1941342291DABDAB003144CF
:103DD0002321C8BC9B0A534311A1BEAC88322413D3
:103DE00081DABC0A2035330090DE9C092043232170
:103DF000C9CE9A00343313A0DCAD990032343202BC
:103E0000DCABAA20342422C9BE9A0833242202FB48
:103E1000AA9A30441222A1CFAA9A40433202DAADC4
:103E2000AA2135140198DCAB991043333590CCBBF3
:103E30009A42433302DCAC9B2842233390DCBA8A9B
:103E400020343433E9BCCA89413324A2CCBB0B42B1
:103E5000442301E9CBAA8920443324B9DBAC89325D
:103E60003533A0BDAD9920333423B9CCBB9A30454E
:103E70005302BACCAB09324523A8CB9D083153225B
:103E800081DBBCAA8A31543501B9BC9C0942440388
:103E9000A9DBAB0930433401A9BCCB993154348040
:103EA000BABE9B18423502A9BD9B00533323B0DC38
:103EB000BBAC0922461400BACC9910532481BABD78
:103EC0009B1833441381CABBBC0832472290DBCB1A
:103ED0009910532400C9BB9920444211A8BCBCAB23
:103EE0001861351290CCBA8A32461290DBBB9A1117
:103EF00043342388CBCC9B0962431298BDBB8A40D4
:103F0000352290DBAA8A32442302BABEBC9A0855F5
:103F10003313B9CDAB88533402B8BDBB88214433C9
:103F200013A8CCBCAA29463202C9BCAB8963332290
:103F3000C9ABAB18523324A0CACCABAA40463281DD
:103F4000BABDAA38453391DBCB9A0021443281A80F
:103F5000CCCB9A31462390DABBBA28453281BABC21
:103F6000892031351399EBBCBA9B73341490CBACD8
:103F700099323622B8CCAB091042431381EAABAC7C
:103F800009534412A8CCBA8A423422A0BCAB0822FE
:103F9000433481B0BECBBB29543522C9BBAC1844D5
:103FA0004301BAAE9A0020332512B0CCBB9C2054FA
:103FB0003482BABDAC18424311A9CB8A081144120D
:103FC00011CABCDB9A20543482CADB8A2034149094
:103FD000CBBB991841344202B9BDCC99314533A1CC
:103FE000DBBC8B20442381BAAC899842243290BC3C
:103FF000CCBC8A42451490BAAD89412412A8CC9A0F
:10400000891842323480BACDAC09534412A9CCABE2
:104010008942431290BAAB9A2934442398BACFAC60
:1040200009524411A9CBAA18342401DAAA9A892189
:1040300042441280C9CDAB28452481CACB9A28338B
:104040003511B99BBC891143351288FAADAB2845AF
:104050003381BABD9A315323A1BCBBAB0821543480
:104060001291ECCB9A403514A8CAAC892043249114
:10407000AAAABB0828543402A1DDBC9A314612908A
:10408000BAAC89313424A9ABBB9B8831562412B019
:10409000DDBB09633401A9CC9B0923441398AACA48
:1040A0009A8820462302D9DCAB0953340299DBAA53
:1040B00010314481AABAAB990840374301D9BC9C5E
:1040C00028542390BABD9B2052438199AAAB9908EA
:1040D00071243391DCCC9B10542201B9BC8B10624B
:1040E0001390A9BAAA999A54443380DCBC8A40350B
:1040F0001398BCAD8911632288A8B9AAAA194643AE
:1041000013A9DDAC8931361280CAAC88203483A86B
:10411000B9BAAACA0955341390CEBB09442401A9DF
:10412000BDAB0041250298A9BAAA9A50452481C97D
:10413000CD9A19533302A9CD990842338099BAAA6E
:10414000BBAC38672311D9CB9B28451380CAAD98E7
:104150001043238099B9ABBB8C72441291FBBB9B7B
:1041600030461201CABB99204412809AABBBBC9B5B
:1041700073263280CCBB8B523403A0CD9B093144D3
:104180001188A8AAAACB29653312B8BFAC8A5243BA
:1041900021A0CBAB8942240188A9A9CBBC09553306
:1041A00024B8BDBC19532401B9BD9A184333018802
:1041B000A9CBDBAA40363302FBDBAA18443202B992
:1041C000ADAA1853220088A9CBDBAB48352502BA2B
:1041D000BDAB30452291DBAB9A2144118190A9BA45
:1041E000CC8A732423A0CDAC9A31352490BBAC8A01
:1041F0004033128198BADCBC8B43453391DBBC9AC7
:10420000423412B8BDAA094223110090AACDBC299C
:10421000454312C8BDAC1A524312B8BBAC09422385
:10422000120098CBCDAD1833461298DBBB1953431F
:1042300081B9CB9A192333211290CBEE9A403325C2
:1042400082DBCC9B10442392BABCAA2043232201D8
:10425000C9CCCD8B20443401B9BE9B20442390CBE4
:10426000BA99113322420288FAAE0A31541390EB04
:10427000CB8A32541298AABB8A21342322A1CADEE7
:10428000BC0931461381DACB8A313403A8BCAA8A2F
:10429000212232251188EEAB08523413B9CEBB0867
:1042A000534301A9ABAB094333430299EBBE9C08CE
:1042B00053441198BCAC08523200AAAB9B0921218F
:1042C000352312D9CF9A18633381CABD9C20341488
:1042D00080AABB9A1043332481B9FCAD8A204524BF
:1042E00081C9CB9A20441290AAAB9A18106223225B
:1042F00001FBBD99213623A1DCCB09213511A8AAE8
:10430000AB893142341398C8DFAB8952442290BC48
:10431000AD09413311A9BABB8A8031452421A1CF0F
:10432000AB0A624302A8BDAC18432301B9BBBB1959
:104330002354338198FBBFA918544311B9CCAB283F
:10434000342381B9DAAA890842342214D9CCAA18B4
:10435000543381CABD8A20342280AABB9C103255B6
:104360001218A0CFBA8B31472391CBBC8B322523B7
:1043700098B9DB9A881044224391DCBC8A304612FB
:1043800090CBAC0922240298A99C991031271011D6
:10439000D9CCBC09623412A8EBAB0832250299C90A
:1043A000AB9A8841344324B8DDAB89533411B9CC7E
:1043B0009B1832240190BBAB891055224181DCCC83
:1043C000AB10552301BACD8A10331500A8CAAA999B
:1043D0000834344401CABEAA28452281BACC8918BF
:1043E000332301A9BBACA838273124A0DEAC8B4114
:1043F000451290CABB8931441291BABCAA9A313590
:10440000552291DCBB8B51341290BCAC8920241313
:1044100001A99C9A9A42315522C9BEBC1953341144
:10442000A8CC9B0942331298DBABBA0A4273431300
:10443000C8CDBA19342402A8AD9B0932431281AA0F
:10444000ABDB1A11543483FBBCAA38452302BAAE45
:104450009A18432302C9BBBBBB2972443482EBCBFD
:104460009B30441381CABBAB2853231190A9D9BBFD
:1044700089404623A1DCBC9A42341381BCAC8A310A
:10448000251380CAAACB9B18543515A0DBAC0A3281
:104490003423A1CCBA9A2134221290A9BECB8952DE
:1044A0004502B8CCAC08433323B8CCBB0952230235
:1044B00098BBDBAC9B31563402C9CCAB28432402F9
:1044C000A9BCAC093133231200DABDBB29553481B4
:1044D000D9BC9B20345302AACB9B28432300A9B903
:1044E000BEBC8A62543390DBBC8B30443391CACB60
:1044F0009A183333141198DCBC9B314722A0CBAD02
:104500000A31432480BACB8A2133028898DBBECBA0
:1045100018633612A8CCAC09325312A0CBBB8B2146
:1045200033433323C8BFBC09622403B8DCAB083172
:10453000441290BABB093233111198DDBE9C10555C
:104540003302C9BD9C00424301A9CBAA09223242D1
:104550003312DCBDAB28552381BACE8A183226012E
:1045600098BB9A1821013122C9FCAC8A413623003C
:10457000DBAD8A20532391CAAC9A101132442290A9
:10458000ECBB8A42262298EABB8A20351481A9AB6B
:104590008A1801215301C0CF9B19722313A0DDAAF1
:1045A00009414302A8BBAC0A1121533402D9CCAB58
:1045B00008442402A8CD9B8932261290A9AA998882
:1045C00010532381FBAE9A20453202C9BC9C0834AB
:1045D0002481AACBAA080032462382DCCB9A31443C
:1045E0003381FABB9B1844230299AA9A99893046D1
:1045F00022A0CFAA8A41353381CCAD9930341498AA
:10460000AABB8A9818733423A8BEBC0A423532A0CC
:10461000DCBB9A3136120099B9A9AA09543212F9B1
:10462000ACAB18733333A8CEBA0942248198BA9C34
:10463000998931463312DBCCAA18532412C9BDAA7A
:104640001942331280B8BABBAD38462281BDBCAB2B
:1046500030554311BABD9B2834249098CBA9B90991
:1046600073342291CCBC9A31362492DBAC9A10245C
:10467000231100A9BBBD8B433424B8CCBC8A32467D
:104680003391DBCB8930331210CACBBAAC28463316
:1046900013B8BEBC09422623B9DCBA8922432212D0
:1046A00080BAEBAB29346301A9DCBB08623412B8D1
:1046B000DBAB0833241091B9CBBD9B41342601A953
:1046C000CDAA18444382BABDAB1832433303B8DBDA
:1046D000CC8A11533380DBCD9A28632481B9CB8AED
:1046E00018332223B0DBBCAD1942442391DABC9BC2
:1046F00041452298BCAC992023433381B9DCAC18E6
:10470000313522A8DDCB8A32452298CAAA892122D6
:104710004213A9DBCC9B00534412A0CCCB095234EA
:1047200001B9BCAB091243341390BADD9A0042348C
:1047300012C9BDAD08622302A9ABBB1A2152248164
:10474000B9CCBC9930543412C9CCAB20541391CAA3
:10475000BBAB882154330288DAAC9A18543382FBFD
:10476000CB9B304422019ACAAA8828442388B8CC1B
:10477000BBBB40662381DAAB8A413422A8DBBBAAEB
:10478000885144130198CBBB9B514612B8CCBB0A4D
:1047900042342380AADB9B9952340190BADCCB9936
:1047A000423612A8BCAC18533201A9BCBCAA18638B
:1047B000241281C8BBBC0A644301BABDAB204325A7
:1047C0000298C99B9A1844230199CBDCAB19652345
:1047D00001BAAD9A21442291BABDBB8A3037231168
:1047E00080CACCAB38371498BCCB8A21442201A0B4
:1047F000ACBBA941341301A8CEAD9B31371398CB84
:10480000AB8842341390CCACAA8842242322B0EC6B
:10481000CB8A523402B9BDAB8842441281BAACAAE9
:104820000942432211B9CFBC89732311A9CB9A093C
:10483000433412B8CCAC991042244211A9CDBB2804
:10484000452391DABBAB1853341390CBAAAA00438B
:10485000342481DCBDAB39461280AAAA9A105433A5
:1048600091CBBCBA991835533391EBBD9B423502BD
:10487000A8CBAC8A28352401B9AABBAA205443246A
:1048800098CDAD8A42241298AAAC9A31351490CBB7
:10489000ABAA8A2054441398CCAC19523301BABD48
:1048A000AC9932362391ABAABA9A50544382C9BD0F
:1048B000AC2934248298BBAC0A533511A9BABADBAF
:1048C0009A31552401B9CD9A30342280CBADBB1931
:1048D000443382A999CBCB9A404523A1DCCB9B31B1
:1048E000342481C9BB9C18342590A9ABC9AC8A5229
:1048F000362280CABC8A32450290BBCCAB304523FD
:104900008088A9CABB1A552412B8EBAC0A213423FB
:1049100001C9BC9A313612889AAACEAB0854431208
:10492000A8DBBB19532402B8BCBC8A32361280887B
:10493000A9DDAA28453391B9BEAC08433411A8CBF0
:10494000BB09532400A889DABDAB41452200A9CC9C
:104950009B29443281CABCAC084323020080EBCCC3
:104960008931351390DABD9B18442401A9BB9B20E3
:1049700036220088A9CFCB0953431188BAAD9A419A
:104980004412A0BABD992034231110C8CEBB2955BA
:10499000238198DCBB8A42251398BAAC8932332232
:1049A0008011FCBD9C2834240290CCAC0942348197
:1049B000A9BC9C0A2224131182EBDC8A3044120128
:1049C000C9CCBB09533401A8BAAB1A33451100A8AE
:1049D000CECC8932341201A8DD9B28631390A9BB89
:1049E000BC094233232490EDAC0852231181DACC68
:1049F0009B30441280A9A99A1031252202DACFAB4C
:104A00001963232291D9AD8A40438298BBBBAA186F
:104A100044242281B8DF9A1844121298CDCC8941DF
:104A200023029999AA8A20451301A0ECBCAB313529
:104A30003313A1EDBB19442381A9AABCAB20443494
:104A40001180DCBB9B62433201D9CCAB285322805E
:104A500089999BAA38372302B8CFAC8A41342311F5
:104A6000CACD9A303403A899BACC9A41531210A0F7
:104A7000CCBC0953243390DCBD8A2134028888AA37
:104A8000AB0A45330290CCCDBB1953251380BCAD86
:104A90000942330188AACCAC0952230280BADD9BBB
:104AA00020453312B9CDBC094223001898BAAE296B
:104AB00044220089DABEAB30452302B9BEAB2044A4
:104AC000128088A9CD9B2844221191DABD8B4044E5
:104AD0002382DABCAB2843221181A8CC9B5133122C
:104AE0000080EEAC8B41342280CBAC8B41332281F1
:104AF00090DDBB8B41343211C8ECBB1944250298C0
:104B0000CABC8A2033331290CBBD1943231142B063
:104B1000FFBB19533311A9BABD0934430180B8CD85
:104B2000CB2835118098EACB0953331121A8FBBD5E
:104B30009D20441201CACC0A21352181CACC9B2870
:104B4000323681ABA8B9A97204B919003018D8CC93
:104B50005024899988EB8C64029899B8AC6103A9B8
:104B60008A32912833FBBB40132854C0CD8A3111BF
:104B70004304D9BC18115223B8CD0901183202FAE6
:104B80009B32A9282381AF51818980CB8A40169915
:104B900011A8EB9A62011180B8AF3902102408CC39
:104BA0000B12903032F88B35909B99929C73079939
:104BB0009989A95A260188ABEB9B63228099A8CDDD
:104BC0003825809800B98E2282990A81BD74029896
:104BD0009A88F9194481A89AB88D641290ABBAAD3D
:104BE00051340189A9EC8A43129198C9AB511481BF
:104BF00099A9BD3026819A99EA0A640298AAA99CCB
:104C0000512481A9AABC393702999AEB9B5333816D
:104C100098B8BF2942828008CB0C24839929B8AE6A
:104C20006213A8AB90EB3964019909BA8C431488DC
:104C300019A8BE1825000A01FA9B41138020C0AEB6
:104C40001813902982BE3927909C18A91A7411A9AB
:104C500099C89B71228299A8BF0825018910D99A09
:104C600042129829B1BF2823A10925B91B17B0AD5D
:104C700039919A6422C98B90AA7033A1AA90CD0C65
:104C800042139940A8BC1833C12B05B91A4091AC06
:104C900026A08D0002DA7001990822B00F01B80930
:104CA0004123A933F99E0833826291CC9B1813608B
:104CB00014B8AC8A110826A19B0921D04113CC9BC2
:104CC00010031C14D98A30369811E9AC0A43833298
:104CD000A3DF9A20141031C8BC8A41003283CA9BDA
:104CE00038C02926A99B51069A20B8BC894680095C
:104CF000A1CB0A72040081DB9C1923005191CCAA3C
:104D000022124123B9DC1B908945019A1B15B91A5F
:104D100001AE9B47028880BACA48338812F9AD0AAF
:104D200034022103CCBC3812186390FB0A21002204
:104D3000A2AA8E23D88B3288CB6404B999AACA3927
:104D4000478108A8BA8E41020881AABE292680316F
:104D500090E99B11893134A1BD59928A21C18F41BB
:104D600025A998ACCA38360410B0DCAC2032223504
:104D7000A9BC8D08203314CBCC080132300599BA78
:104D8000B98E14309142D9EB0988431004A9AC21A3
:104D900099A07006A98993BB9A66909A2883991066
:104DA00007BAAB72A2084091BBAD23093622C8BD39
:104DB0008C01482422CBCC0901622281DADB091163
:104DC000333392FABD1811323390FB9D1118321310
:104DD000A8DE1A81202214CAAE10112232A1CEAB55
:104DE00011302424C9BC8B125333A1CDBB393344B9
:104DF00022C8BBBE1032158199C99D10430300988B
:104E0000FB8D0022110280EC1900003182A8EF18FE
:104E100000203301E99D1818223381FC8B002132D8
:104E200014A9DF8910324382B9BF9921433390FA24
:104E3000AD0932431388FB8D0821220181ED8900E1
:104E4000222201C0BE0930222300F99C1821211121
:104E500098FD8920123291A8CF08222111B9E9AC1E
:104E6000214322919BFA8C103312A889FB0B41231A
:104E700091A812EC991101084006CB8981888072B3
:104E8000859B88990A2047A19A9998104227B9CB07
:104E90000920242284DDAB08421420B1CE9A21449B
:104EA0000220F9BB0920341114EABB08421321A4E3
:104EB000CDAB19331443B0BD9A10421133F9BB087E
:104EC00011340004FB9A0022041A92BD893044B1C7
:104ED0003AB0BD8921559011A9BC1A21268923FA1F
:104EE000BB0838055015C99A9819A173059999AA54
:104EF0001918478199A9AC0830478099BA8B12716B
:104F000014A8ABCA38036282DBAA9A441143B1CC1D
:104F1000AB1A253225B9BDAA39244204CAAC99413D
:104F2000224292CCAA8A421233B1AF992A251003A9
:104F3000D99B9858820802C90A9946900908DA88CC
:104F40003926B81082ACB93B179933A28EA968A153
:104F50002A35B0ABBE20A0722398C99D00185423F7
:104F6000A9DC8B0830450298BD8B80512401A9CC67
:104F70000888422499D99B02185402A9DC1982207E
:104F80004490CABC28015333B8CC9C20225383DB05
:104F9000CB8B32333691BBDD0A23213498DABC291E
:104FA000233115A0EB9B31024013DADB0924885230
:104FB00091ABBB4A838A36909ACB42A13915AAA0FD
:104FC0009D12A9600310E0AC8089632210FAAB81C6
:104FD00008551280DC89900A352191AD09B86833F3
:104FE00011FABB08203712A8DC9B10422401AACD7D
:104FF0009911531288CAAC18225202ABBD8A4224BE
:1050000023C9AC9888412283DC18819B2132E01CA3
:1050100024DA092212AC41B2AE2813902125FB9C60
:1050200021803124A8DE0923192290E8AD30805276
:105030008398DA8A022835B90AB9B9693583BBAAD7
:10504000989F1281028B70C22A0509CA0C13CB519A
:105050000290C942818A92BAB82D04A85113BC9E0D
:105060001000987014890108A8DE08806282A9A83F
:105070008B121D268090BB0C884701998900D81A95
:1050800033B0EB99A0594702B8ACAA9D513402A89D
:10509000BBDB09422408A9DA8C4123A1ABBA9E529A
:1050A0001411A8B9CD1A352280BAEBBB3044128056
:1050B00098BE1B52828810B09B4225889AFBBB1871
:1050C00054139880DB8B18338360839B1090AC8ED5
:1050D00011B8312589A880F98B7283988A08194103
:1050E00006993A23DD8931B8CF2081313498E80A16
:1050F000B09F412302CB0999102488BA0AF09A7410
:1051000002B99C98084125019988AF094322B00A49
:10511000C8BB4032838B96BF1A1412A820A98C26D4
:1051200012919BFABC28431488A0BC9C10330056F3
:10513000809C89219148A2BD10AA215007C99A9844
:10514000200251129AA0BC087415B98B88901B36A6
:10515000918AA09CAC46A19B1031043924CA89BC19
:10516000081B46A28B9828FA1902BB5122842803F7
:10517000CF0A12250980FA8A0031A92894AE8948FD
:10518000141823DC1A13339930F1BF8841130198A6
:10519000CD8A18811055819B09248010D0AC91389C
:1051A000886114DB9A8B238163911AC880897017F8
:1051B000A89989A80A35A11899EB9A528309A821C0
:1051C00098692608B89CA89E5203819B08EC199206
:1051D000092125918B34AAA009228061F98918112F
:1051E000DA8B1688BB30140915AD085413BA30F8A1
:1051F000AC89432318C1AE990912803791B90A537B
:105200008128B0EB8A42122885CCBC0A2120368145
:10521000A8AC1180721380CC0A803914B9DC1A0250
:10522000895302B9AF0821461388BC9AAA2945229E
:10523000C0AB9A082282C88D1308643312DC8BA994
:10524000203522B0ADB9AD202213BB32C929850962
:10525000A966120091ACDA8B91184481C0BF00009E
:10526000000153A070129881DBDB1B350200BAAA43
:10527000BE8900731300B90B52028038B3CF1812E5
:1052800042A0FBAD1001102222EA9C883847128010
:10529000BB9BBA284326B9AC008A9021F99B5212D5
:1052A000434392BDBBB9515323A8BDBA0A80410301
:1052B000990889353106CB2A15209111FAABBA0D20
:1052C0003443B0BC0A8801303602218261A0B8EFB5
:1052D0008A32118220B0DFAA99414323A08A018833
:1052E000AA4183BD28308408FBCE0908305113B889
:1052F000ADAA48444382CAAA9B003035B00BCABA53
:105300001C44C08D2031423402DBBAAE18632390B6
:10531000ACBA08AA2935888020016403EB09110181
:105320002123C2AECD8A321491BBB91A0230750363
:105330008018010909FB9F10121021B1DFAA8A20F1
:10534000261490888A001109A29B8B641200B1FF79
:105350009C08213233B0DAAB8A643482A9BC8A2833
:10536000812309B8BDBC1856A0AB8A34346303A8A6
:10537000CDBB1A532580A9ABA9BA39532389A938C3
:10538000730798B90928221780C8CC9B1024019074
:10539000CA981129324403238A8D13D8DD0A0031BB
:1053A00045A0BCACB918733322C88A20A0A918A1A3
:1053B0003855B02A24FCAF8822220300A9DB8B6178
:1053C0003313B0BE0A22819921EABCA9303712EB0F
:1053D0009A20324512B8CAAD0A422482AABCAB89CF
:1053E000006311A819287334A2DC9A88423304BAE6
:1053F000BDBB9A226401B9AA003360230399BA9F06
:105400003116BABC0A311681BBBCAA9A73451298F0
:10541000AA80108900900A80CF2127C8BD9A103534
:105420003200A9C9A948522391DC9A18811111CDE3
:10543000ABA8207305A8AB88724302B8BBBC8C43F1
:105440003312A8BEAC80203200891211703791CC83
:10545000AA1A513482BAABDC99114313A9DB182183
:1054600031349090ACAC4027A89D8A002303CA8DAC
:10547000C8AA30553282A89B099AA9A058182201BF
:1054800015F9EF9910223411AA999A084144A4AA57
:105490008C1013A8BAAFA928251140CC12AA1971F3
:1054A0004791BACC281380903805DCBB493690BAB6
:1054B0009B541298BA1813EABD512590C9AA10122C
:1054C000918B4313B0BF383401CD0B3143A2BC19CB
:1054D0002091DD284314FB9A2134B88C2053A0AED0
:1054E000195382CB8A3125D99B2033B89B3137C0E1
:1054F000BC186392BB094203DB8A3114EA9A204448
:1055000091BB8A5302CA893016B9AC293681AAAC3C
:105510003084AAAB7104A8BA282791A98B4281894B
:105520009941C0AE9A511488990A33A1993957A06C
:10553000AB9A6292BBAB6103AAA94826A8BC1A56D3
:105540000199AA2082BC9A7313BAAC192680AB0ABF
:1055500044918A0A6391BC9B610498980912A99AA4
:105560003847B89AAB7382AB8A61049A881014C921
:10557000AB3A4790A9AA38A2CC897403999A2934E6
:10558000A0CB0A35A0AA8854A1BF8A5303A98818C2
:1055900004B98A6125B0AC094191AC895192BA1025
:1055A0003215DABA295780899910B9AC186502A961
:1055B000AA0823A8AA0C27B08A807381CBCA4824E2
:1055C00000A09A909A08396798AABA300388B973EC
:1055D0001589881815A0EB8B5302A8BC18B0AB9B9B
:1055E000751688A9092181A91835A8AB8944A1BEDF
:1055F000BD4814100099A99B21721688A9BA188079
:1056000012CA29E11B1418000AF98B47110190AA4C
:10561000CD8900330328C8BCAA30151082BF3035AD
:1056200013DBAAAB51123025B0DD8B102203BC096D
:10563000010109620300FC1B4502D9AA0818039066
:105640002933D8CF892134918A1211EB8B336382AD
:10565000CD194203DBBB9A3203284512FAAB28630B
:1056600023C8992811DA8A1825E89B2034A09C9831
:10567000483481081003CEAB0A638299BA88B88C8B
:10568000887126A8994124A0CA9D2002980834D880
:10569000ADAB413590B90A3400998C34A2AD2934B0
:1056A000B2ACCC193581901982ACA9AA7123129899
:1056B000BBCC688109139988203709E1CE091021F4
:1056C0001021C88AA82B771180AA891883A989BEBE
:1056D000DA8930237391CB08543212B0BF8800228C
:1056E00024C9CE8980324291D8AC28622232A0CF20
:1056F0008888114281DD8908112192B95A840A11E2
:1057000023D09F5181989A9AAB7483BB0924C01A05
:1057100024B99952029963C9AB1832A96105BAAD8F
:1057200021010015C9AC40139A5092CC0A3490194B
:1057300092C98C50A18A2289A93917BA4802C898FF
:1057400047988A81B9AC72028A90AA9E282591193D
:1057500001A09A4524BAABB89C7307B88980DA2AAD
:105760004483AA899A194702BA8A00C94835B0BB4E
:1057700089BA3C4791AB0981AD532580AB99B958A3
:105780004390AA00F09C5214C89A88894225908AB6
:1057900080FB094402A9AAA90A7313A99B98BC48D3
:1057A00047819A8AB92946029A8AC8AB7023A1BA5E
:1057B000AAAB713490AA29B9AC732498AABA9B7287
:1057C00024A8AA01CA0C5313999ABA1A3704AB0A2F
:1057D00003E90A6301A99AA93B55A1BA3813CC3849
:1057E00035809A99DA2036A0AC20A19F3814A09A6F
:1057F000899B7317989A10A80A5302B99ADA0A6417
:1058000082B98A11AA3A3783A90ACD183781BB0910
:1058100091CB581390AAA1AF482590AB2090BB45DF
:1058200023B89CB8AC7115A8AA01B80D3304A0091F
:10583000A99A4712CA0B11C8185301CB80CB0C444C
:1058400002C91801BB2035813AB2DE1822029C122F
:10585000D09E0923912098AF3835A22A12FC8A30B5
:10586000228903FB9C2022C81082AC894405188041
:10587000CC8B42149918C0BC19430122D0CD0933F6
:10588000858810B8BB38370808D9AC3864A099812E
:10589000B99B50140811CB9D2216900A80A98A73D7
:1058A000848898DC8A5812A91001BB09378031908E
:1058B000BDA97282A980C0BB2B279180A09F1937F8
:1058C000018A00B9BA50120980F8AB2A25A18A00D2
:1058D000899B67028910C9DB4023A88AA0EB1A3391
:1058E000A10984AE9C5413980898CB19268009C04E
:1058F000DB1C63829A08999B50148020AACD28262D
:10590000A19A88909A7313AB90AAAF4814A8191063
:10591000A99C35812992E9AC62229998A8DC0B24D4
:10592000811000FB8C44020888A8DB38348000CA50
:10593000CE1A5201A889999C73238080A8CE18257D
:10594000808998DA0B438200A8EA9C51140189A946
:10595000BA2A378198A9FA8B62019088AAAC5114AF
:10596000818888BC1A3601989ACA9D521388A8A8C3
:10597000BD4B25810818DA8B43032008FAAC30327E
:105980001182C8DE8A32028010CA9F4101112101B2
:10599000DC1A149889C0EA9C3212818823BE5023F5
:1059A0009009ACDC392600988993AC2190AAD0DB11
:1059B000BD4123338258038A2490ADDCBB8D220184
:1059C00011A050226204B898CBCC0A131102AE4247
:1059D000124402BACACBBD192310922A3741149837
:1059E0009ABACDAC210418B01A243224A0A9BAEF77
:1059F0009B2292429100105513989ACADF8A100890
:105A00001200814836038809B8FF0A01100188880E
:105A1000483480B809F8AF181131009889521480C1
:105A20009A11FAAF101012909A896313988913FC97
:105A30008E102011A8A9284602980990DF8A00310B
:105A400001AA9B503602A810B2DF08102290BAAB10
:105A5000603301AC10F99D20222490BAAB623382EE
:105A60009B00FD8C002212BABB8D7323010890CFDE
:105A700009102382CACB1A5313800AB0CF192124EC
:105A800081ABBC3945129918F8AB083225A0CB9CE4
:105A90003825028911FAAA085223B8BC8C523381E6
:105AA0000AA1CE9B095213A9CB1945239819D1BC41
:105AB00099284403CAAC285312A818EAABAA304765
:105AC00001989B1845029980DCAB8B313580CB8BDC
:105AD00052260218A0BDBA8B621390CB0A522491B1
